:020000040800F2
:1000000090020020610200088B0100088D010008A9
:100010009101000895010008990100080000000006
:100020000000000000000000000000009D0100082A
:100030009F01000800000000A1010008A3010008C2
:1000400077020008770200087702000877020008AC
:10005000770200087702000877020008770200089C
:10006000770200087702000877020008770200088C
:10007000770200087702000877020008770200087C
:10008000770200087702000877020008770200086C
:10009000770200087702000877020008770200085C
:1000A000770200087702000877020008770200084C
:1000B00077020008770200080000000077020008BD
:1000C000770200080000000000000000770200082E
:1000D000770200087702000877020008000000009D
:1000E00077020008770200087702000800F002F8A3
:1000F00000F03CF80AA090E8000C82448344AAF186
:100100000107DA4501D100F031F8AFF2090EBAE883
:100110000F0013F0010F18BFFB1A43F0010318473B
:10012000E808000008090000103A24BF78C878C128
:10013000FAD8520724BF30C830C144BF04680C60ED
:10014000704700000023002400250026103A28BF35
:1001500078C1FBD8520728BF30C148BF0B60704739
:100160001FB500F04AFC1FBD10B510BD00F005FC26
:100170001146FFF7F5FF00F021F800F023FC03B46F
:10018000FFF7F2FF03BC00F02DFC704700BFFEE755
:1001900000BFFEE700BFFEE700BFFEE77047704705
:1001A0007047704707E041F2883100BF0A00A1F1B3
:1001B0000101FBD1401E0028F5D1704708B501218F
:1001C000102000F06EFB4FF6FF70ADF8000010201D
:1001D0008DF8030003208DF8020069461B4800F0EB
:1001E000B9F832E000201A4908802AE0184800884F
:1001F0000A2190FBF1F0174931F8100016494880A8
:10020000134800880A2190FBF1F201FB120011490A
:1002100031F810001049088008464188008861F3D1
:100220001F20C0430D49088008460188074800F098
:1002300044F96420FFF7B6FF05480088401C0449D4
:100240000880034800881428D0DDCBE70010014067
:100250001A000020000000201400002018000020D8
:1002600008480047FEE7FEE7FEE7FEE7FEE7FEE799
:10027000FEE7FEE7FEE7FEE703480449024A044BB7
:1002800070470000ED000008900000209002002060
:100290009000002010B50446C748844208D10121CF
:1002A000042000F018FB0021042000F014FB46E0BD
:1002B000C248844208D10121082000F00CFB002133
:1002C000082000F008FB3AE0BD48844208D1012133
:1002D000102000F000FB0021102000F0FCFA2EE0BE
:1002E000B848844208D10121202000F0F4FA00210E
:1002F000202000F0F0FA22E0B348844208D1012126
:10030000402000F0E8FA0021402000F0E4FA16E076
:10031000AE48844208D10121802000F0DCFA00219F
:10032000802000F0D8FA0AE0A948844207D10121D0
:10033000801500F0D0FA0021A01500F0CCFA10BD15
:1003400010B50121084600F0C6FA0021012000F096
:10035000C2FA10BD2DE9F04100220023002400253F
:100360000026002791F803C00CF00F0291F803C09B
:100370001CF0100F03D091F802C04CEA0202B1F851
:1003800000C01CF0FF0F31D0066800242BE04FF0B6
:10039000010C0CFA04F5B1F800C00CEA0503AB42FD
:1003A00020D1A5004FF00F0C0CFA05F7BE4302FA5E
:1003B00005FC4CEA060691F803C0BCF1280F06D1F3
:1003C0004FF0010C0CFA04FCC0F814C00AE091F8DC
:1003D00003C0BCF1480F05D14FF0010C0CFA04FC2E
:1003E000C0F810C0641C082CD1D30660B1F800C05E
:1003F000BCF1FF0F34DD466800242EE004F1080C48
:100400004FF0010808FA0CF5B1F800C00CEA05033A
:10041000AB4221D1A5004FF00F0C0CFA05F7BE43FB
:1004200002FA05FC4CEA060691F803C0BCF1280F5D
:1004300005D104F1080C08FA0CF8C0F8148091F802
:1004400003C0BCF1480F07D104F1080C4FF00108BC
:1004500008FA0CF8C0F81080641C082CCED3466053
:10046000BDE8F0814FF6FF71018002218170042107
:10047000C17070470246002093680B4201D00120F2
:1004800000E0002070470146886880B2704702464D
:100490000020D3680B4201D0012000E0002070470B
:1004A0000146C86880B2704701617047416170477A
:1004B0000AB1016100E041617047C16070474FF4CB
:1004C00080320A43826181618261826982697047F8
:1004D0000022404B1A684FF680731A4042EA00121D
:1004E0000A433C4B1A6070473B49C8617047F0B5FE
:1004F000002200230024002500F00046B6F1004F42
:1005000002D1344EF46901E0324E7468C0F3034501
:1005100082B200F44016B6F5401F08D124F0706492
:100520002C4E766826F070662A4F7E6012E000F44A
:100530008016B6F5801F06D1032606FA05F39C4304
:1005400044F0706406E0460D360102FA06F6B44344
:1005500044F0706421B1460D360102FA06F63443C8
:1005600000F00046B6F1004F02D11A4EF46101E0EE
:10057000184E7460F0BD30B500228B071C0F0F239E
:1005800003FA04F2134B08338C1053F824409443BD
:100590008D1043F825408C1053F824308C07240F1D
:1005A00000FA04F423430B4C08348D1044F8253032
:1005B00030BD0A490860704700080140000C014046
:1005C000001001400014014000180140001C0140CF
:1005D000002001400000014000002042DC002042D9
:1005E000D848006840F00100D649086008464068D5
:1005F000D5490840D349486008460068D3490840B7
:10060000D04908600846006820F480200860084649
:10061000406820F4FE0048604FF41F008860704777
:10062000C849096821F48031C64A11601146096839
:1006300021F480211160B0F5803F03D0B0F5802F08
:100640000ED106E0BF49096841F48031BD4A11600E
:1006500007E0BC49096841F4A021BA4A116000E0F2
:1006600000BF00BF704710B50146002200230020E4
:100670004A11012A02D1B34C236806E0022A02D1B2
:10068000B04C236A01E0AF4C636A01F01F02012401
:1006900094401C4201D0012000E0002010BD70B544
:1006A00000240025002600BF3120FFF7DCFF0646AE
:1006B000641CB4F5A06F01D0002EF5D03120FFF7F7
:1006C000D2FF08B1012500E00025284670BD0021B9
:1006D0009C4A116821F0F80141EAC001116070479D
:1006E0009B49086070470022964B5A6822F47C129E
:1006F00040EA01031A43934B5A60704794490866D5
:10070000704700218F4A516821F003010143516075
:1007100070478C48406800F00C0070470021894AFF
:10072000516821F0F0010143516070470021854A72
:10073000516821F4E0610143516070470021814A12
:10074000516821F4605141EAC0015160704729B1FC
:100750007C4A527A02437B4B5A7206E0794A527ABB
:10076000C343DBB21A40774B5A727047794908602D
:1007700070470021734A516821F4404101435160A0
:1007800070470021744A11706E4A82F820100128C7
:1007900002D0042808D103E001216F4A117004E05F
:1007A00005216D4A117000E000BF00BF70476B4922
:1007B000086070476349096A0143624A11627047E1
:1007C00067490860704730B50021002200230024EB
:1007D0005C4D6D6805F00C0121B1042905D0082994
:1007E00023D105E05F4D056022E05E4D05601FE00E
:1007F000544D6D6805F47012524D6D6805F48033E8
:10080000022505EB92421BB9574D554305600BE09D
:100810004C4D6D6815F4003F03D0534D55430560B2
:1008200002E0504D5543056002E04E4D056000BFAB
:1008300000BF444D6D6805F0F00109094B4D6C5C3B
:100840000568E54045603F4D6D6805F4E061090AC3
:10085000464D6C5C4568E54085603A4D6D6805F431
:100860006051C90A414D6C5C4568E540C560354D35
:100870006D6805F44041890B3C4D10356C5CC568D2
:10088000B5FBF4F5056130BD29B12E4A526902432A
:100890002C4B5A6104E02B4A52698243294B5A611E
:1008A000704729B1274A92690243264B9A6104E0B6
:1008B000244A92698243234B9A61704729B1214AA5
:1008C000D26902431F4BDA6104E01E4AD2698243B7
:1008D0001C4BDA61704729B11A4AD2680243194B9E
:1008E000DA6004E0174AD2688243164BDA60704738
:1008F00029B1144A12690243124B1A6104E0114AE9
:10090000126982430F4B1A6170471949086070479A
:100910000F49C86470470B49C87170470948406A5D
:1009200040F0807007494862704701460020054A40
:1009300092680A4201D0012000E00020704701497E
:1009400088727047001002400000FFF8FFFFF6FEBB
:1009500000004242D800424220100240800442423D
:100960003C04424200127A0000093D001C000020B5
:1009700040044242704770477047754600F028F8BF
:10098000AE4605006946534620F00700854618B07C
:1009900020B5FFF771FCBDE820404FF000064FF096
:1009A00000074FF000084FF0000B21F00701AC46A4
:1009B000ACE8C009ACE8C009ACE8C009ACE8C009C3
:1009C0008D4670470446AFF300802046FFF7D7FB03
:1009D0000048704730000020014870477047000011
:1009E0003400002003494FF01800ABBE70470000F0
:1009F0000900000026000200704710B5FFF7ECFF69
:100A00004FF00001016010BD280A0008000000201E
:100A10003000000028010008580A000830000020BB
:100A200060020000440100083F0006005B004F0028
:100A300066006D007D0007007F006F000000000071
:100A40000000000000000000010203040102030492
:080A500006070809020406086C
:04000005080000ED02
:00000001FF
